{"abi":[{"type":"constructor","inputs":[{"name":"priceFeed","type":"address","internalType":"address"}],"stateMutability":"nonpayable"},{"type":"fallback","stateMutability":"payable"},{"type":"receive","stateMutability":"payable"},{"type":"function","name":"MINIMUM_USD","inputs":[],"outputs":[{"name":"","type":"uint256","internalType":"uint256"}],"stateMutability":"view"},{"type":"function","name":"cheaperWithdraw","inputs":[],"outputs":[],"stateMutability":"nonpayable"},{"type":"function","name":"fund","inputs":[],"outputs":[],"stateMutability":"payable"},{"type":"function","name":"getAddressToAmountFunded","inputs":[{"name":"fundingAddress","type":"address","internalType":"address"}],"outputs":[{"name":"","type":"uint256","internalType":"uint256"}],"stateMutability":"view"},{"type":"function","name":"getFunder","inputs":[{"name":"index","type":"uint256","internalType":"uint256"}],"outputs":[{"name":"","type":"address","internalType":"address"}],"stateMutability":"view"},{"type":"function","name":"getOwner","inputs":[],"outputs":[{"name":"","type":"address","internalType":"address"}],"stateMutability":"view"},{"type":"function","name":"getPriceFeed","inputs":[],"outputs":[{"name":"","type":"address","internalType":"contract AggregatorV3Interface"}],"stateMutability":"view"},{"type":"function","name":"getVersion","inputs":[],"outputs":[{"name":"","type":"uint256","internalType":"uint256"}],"stateMutability":"view"},{"type":"function","name":"s_funders","inputs":[{"name":"","type":"uint256","internalType":"uint256"}],"outputs":[{"name":"","type":"address","internalType":"address"}],"stateMutability":"view"},{"type":"function","name":"withdraw","inputs":[],"outputs":[],"stateMutability":"nonpayable"},{"type":"error","name":"FundMe__NotOwner","inputs":[]}],"bytecode":{"object":"0x608060405234801561001057600080fd5b5060405161097738038061097783398101604081905261002f91610062565b60028054336001600160a01b031991821617909155600380549091166001600160a01b0392909216919091179055610092565b60006020828403121561007457600080fd5b81516001600160a01b038116811461008b57600080fd5b9392505050565b6108d6806100a16000396000f3fe6080604052600436106100955760003560e01c8063893d20e811610059578063893d20e8146101735780639e87a5cd14610191578063b60d4288146100a4578063be2693f0146101af578063d7b4750c146101c4576100a4565b80630343fb25146100ac5780630d8e6e2c146100f55780633ccfd60b1461010a57806354861af71461011f5780636b69a59214610157576100a4565b366100a4576100a26101e4565b005b6100a26101e4565b3480156100b857600080fd5b506100e26100c7366004610715565b6001600160a01b031660009081526020819052604090205490565b6040519081526020015b60405180910390f35b34801561010157600080fd5b506100e26102bf565b34801561011657600080fd5b506100a2610332565b34801561012b57600080fd5b5061013f61013a36600461073e565b61045b565b6040516001600160a01b0390911681526020016100ec565b34801561016357600080fd5b506100e2674563918244f4000081565b34801561017f57600080fd5b506002546001600160a01b031661013f565b34801561019d57600080fd5b506003546001600160a01b031661013f565b3480156101bb57600080fd5b506100a2610485565b3480156101d057600080fd5b5061013f6101df36600461073e565b6105b0565b600354674563918244f40000906102059034906001600160a01b03166105e0565b10156102585760405162461bcd60e51b815260206004820152601b60248201527f596f75206e65656420746f207370656e64206d6f72652045544821000000000060448201526064015b60405180910390fd5b336000908152602081905260408120805434929061027790849061076d565b90915550506001805480820182556000919091527fb10e2d527612073b26eecdfd717e6a320cf44b4afac2b0732d9fcbe2b7fa0cf60180546001600160a01b03191633179055565b6003546040805163054fd4d560e41b815290516000926001600160a01b0316916354fd4d509160048083019260209291908290030181865afa158015610309573d6000803e3d6000fd5b505050506040513d601f19601f8201168201806040525081019061032d9190610780565b905090565b6002546001600160a01b0316331461035d5760405163579610db60e01b815260040160405180910390fd5b60005b6001548110156103b35760006001828154811061037f5761037f610799565b60009182526020808320909101546001600160a01b03168252819052604081205550806103ab816107af565b915050610360565b5060408051600081526020810191829052516103d19160019161069b565b50604051600090339047908381818185875af1925050503d8060008114610414576040519150601f19603f3d011682016040523d82523d6000602084013e610419565b606091505b50509050806104585760405162461bcd60e51b815260206004820152600b60248201526a10d85b1b0819985a5b195960aa1b604482015260640161024f565b50565b6001818154811061046b57600080fd5b6000918252602090912001546001600160a01b0316905081565b6002546001600160a01b031633146104b05760405163579610db60e01b815260040160405180910390fd5b60015460005b81811015610507576000600182815481106104d3576104d3610799565b60009182526020808320909101546001600160a01b03168252819052604081205550806104ff816107af565b9150506104b6565b5060408051600081526020810191829052516105259160019161069b565b50604051600090339047908381818185875af1925050503d8060008114610568576040519150601f19603f3d011682016040523d82523d6000602084013e61056d565b606091505b50509050806105ac5760405162461bcd60e51b815260206004820152600b60248201526a10d85b1b0819985a5b195960aa1b604482015260640161024f565b5050565b6000600182815481106105c5576105c5610799565b6000918252602090912001546001600160a01b031692915050565b6000806105ec83610618565b90506000670de0b6b3a764000061060386846107c8565b61060d91906107df565b925050505b92915050565b600080826001600160a01b031663feaf968c6040518163ffffffff1660e01b815260040160a060405180830381865afa158015610659573d6000803e3d6000fd5b505050506040513d601f19601f8201168201806040525081019061067d9190610820565b505050915050806402540be4006106949190610870565b9392505050565b8280548282559060005260206000209081019282156106f0579160200282015b828111156106f057825182546001600160a01b0319166001600160a01b039091161782556020909201916001909101906106bb565b506106fc929150610700565b5090565b5b808211156106fc5760008155600101610701565b60006020828403121561072757600080fd5b81356001600160a01b038116811461069457600080fd5b60006020828403121561075057600080fd5b5035919050565b634e487b7160e01b600052601160045260246000fd5b8082018082111561061257610612610757565b60006020828403121561079257600080fd5b5051919050565b634e487b7160e01b600052603260045260246000fd5b6000600182016107c1576107c1610757565b5060010190565b808202811582820484141761061257610612610757565b6000826107fc57634e487b7160e01b600052601260045260246000fd5b500490565b805169ffffffffffffffffffff8116811461081b57600080fd5b919050565b600080600080600060a0868803121561083857600080fd5b61084186610801565b945060208601519350604086015192506060860151915061086460808701610801565b90509295509295909350565b80820260008212600160ff1b8414161561088c5761088c610757565b81810583148215176106125761061261075756fea264697066735822122007a4bb2278d6135310e07fd9ad45b91a57f12c0e55fcdf5e658014ee044241ef64736f6c63430008130033","linkReferences":{}},"methodIdentifiers":{"MINIMUM_USD()":"6b69a592","cheaperWithdraw()":"be2693f0","fund()":"b60d4288","getAddressToAmountFunded(address)":"0343fb25","getFunder(uint256)":"d7b4750c","getOwner()":"893d20e8","getPriceFeed()":"9e87a5cd","getVersion()":"0d8e6e2c","s_funders(uint256)":"54861af7","withdraw()":"3ccfd60b"},"id":27}